{
  "contractName": "EMR",
  "abi": [
    {
      "inputs": [],
      "stateMutability": "nonpayable",
      "type": "constructor"
    },
    {
      "inputs": [
        {
          "internalType": "address",
          "name": "",
          "type": "address"
        }
      ],
      "name": "Hospital_Data",
      "outputs": [
        {
          "internalType": "string",
          "name": "name",
          "type": "string"
        },
        {
          "internalType": "string",
          "name": "addr",
          "type": "string"
        },
        {
          "internalType": "address",
          "name": "manager",
          "type": "address"
        }
      ],
      "stateMutability": "view",
      "type": "function",
      "constant": true
    },
    {
      "inputs": [
        {
          "internalType": "address",
          "name": "",
          "type": "address"
        }
      ],
      "name": "Hospital_patients",
      "outputs": [
        {
          "internalType": "address",
          "name": "",
          "type": "address"
        }
      ],
      "stateMutability": "view",
      "type": "function",
      "constant": true
    },
    {
      "inputs": [
        {
          "internalType": "address",
          "name": "",
          "type": "address"
        }
      ],
      "name": "Hospitals",
      "outputs": [
        {
          "internalType": "bool",
          "name": "",
          "type": "bool"
        }
      ],
      "stateMutability": "view",
      "type": "function",
      "constant": true
    },
    {
      "inputs": [
        {
          "internalType": "uint256",
          "name": "",
          "type": "uint256"
        }
      ],
      "name": "HospitalsAddr",
      "outputs": [
        {
          "internalType": "address",
          "name": "",
          "type": "address"
        }
      ],
      "stateMutability": "view",
      "type": "function",
      "constant": true
    },
    {
      "inputs": [],
      "name": "Owner",
      "outputs": [
        {
          "internalType": "address",
          "name": "",
          "type": "address"
        }
      ],
      "stateMutability": "view",
      "type": "function",
      "constant": true
    },
    {
      "inputs": [
        {
          "internalType": "address",
          "name": "",
          "type": "address"
        }
      ],
      "name": "Patients",
      "outputs": [
        {
          "internalType": "bool",
          "name": "",
          "type": "bool"
        }
      ],
      "stateMutability": "view",
      "type": "function",
      "constant": true
    },
    {
      "inputs": [
        {
          "internalType": "address",
          "name": "",
          "type": "address"
        }
      ],
      "name": "Patients_EHR",
      "outputs": [
        {
          "internalType": "string",
          "name": "patient_name",
          "type": "string"
        },
        {
          "internalType": "uint256",
          "name": "age",
          "type": "uint256"
        },
        {
          "internalType": "address payable",
          "name": "patient_address",
          "type": "address"
        }
      ],
      "stateMutability": "view",
      "type": "function",
      "constant": true
    },
    {
      "inputs": [
        {
          "internalType": "address",
          "name": "Hospital",
          "type": "address"
        },
        {
          "internalType": "address",
          "name": "manager",
          "type": "address"
        },
        {
          "internalType": "string",
          "name": "name",
          "type": "string"
        },
        {
          "internalType": "string",
          "name": "addr",
          "type": "string"
        }
      ],
      "name": "Add_Hospitals",
      "outputs": [],
      "stateMutability": "nonpayable",
      "type": "function"
    },
    {
      "inputs": [
        {
          "internalType": "address",
          "name": "patient",
          "type": "address"
        }
      ],
      "name": "Add_Patient",
      "outputs": [],
      "stateMutability": "nonpayable",
      "type": "function"
    },
    {
      "inputs": [
        {
          "internalType": "string",
          "name": "patient_name",
          "type": "string"
        },
        {
          "internalType": "uint256",
          "name": "age",
          "type": "uint256"
        },
        {
          "internalType": "address payable",
          "name": "patient_address",
          "type": "address"
        }
      ],
      "name": "Add_Patient_EHR",
      "outputs": [],
      "stateMutability": "nonpayable",
      "type": "function"
    },
    {
      "inputs": [
        {
          "internalType": "address",
          "name": "To",
          "type": "address"
        },
        {
          "internalType": "address",
          "name": "From",
          "type": "address"
        },
        {
          "internalType": "address payable",
          "name": "patient_address",
          "type": "address"
        }
      ],
      "name": "Emergency_EHR_Transfer",
      "outputs": [],
      "stateMutability": "nonpayable",
      "type": "function"
    },
    {
      "inputs": [
        {
          "internalType": "address",
          "name": "To",
          "type": "address"
        },
        {
          "internalType": "address",
          "name": "From",
          "type": "address"
        },
        {
          "internalType": "address payable",
          "name": "patient_address",
          "type": "address"
        }
      ],
      "name": "EHR_Transfer",
      "outputs": [],
      "stateMutability": "nonpayable",
      "type": "function"
    },
    {
      "inputs": [],
      "name": "getCounts",
      "outputs": [
        {
          "internalType": "uint256",
          "name": "",
          "type": "uint256"
        },
        {
          "internalType": "uint256",
          "name": "",
          "type": "uint256"
        }
      ],
      "stateMutability": "view",
      "type": "function",
      "constant": true
    },
    {
      "inputs": [
        {
          "internalType": "address",
          "name": "patient",
          "type": "address"
        },
        {
          "internalType": "string",
          "name": "patient_name",
          "type": "string"
        },
        {
          "internalType": "uint256",
          "name": "age",
          "type": "uint256"
        },
        {
          "internalType": "address payable",
          "name": "patient_address",
          "type": "address"
        }
      ],
      "name": "updateEHR",
      "outputs": [],
      "stateMutability": "nonpayable",
      "type": "function"
    },
    {
      "inputs": [
        {
          "internalType": "address",
          "name": "patient",
          "type": "address"
        }
      ],
      "name": "getEHRsummary",
      "outputs": [
        {
          "internalType": "string",
          "name": "",
          "type": "string"
        },
        {
          "internalType": "uint256",
          "name": "",
          "type": "uint256"
        },
        {
          "internalType": "address",
          "name": "",
          "type": "address"
        }
      ],
      "stateMutability": "view",
      "type": "function",
      "constant": true
    },
    {
      "inputs": [
        {
          "internalType": "address",
          "name": "Hospital",
          "type": "address"
        }
      ],
      "name": "getHospitalData",
      "outputs": [
        {
          "internalType": "string",
          "name": "",
          "type": "string"
        },
        {
          "internalType": "string",
          "name": "",
          "type": "string"
        },
        {
          "internalType": "address",
          "name": "",
          "type": "address"
        }
      ],
      "stateMutability": "view",
      "type": "function",
      "constant": true
    },
    {
      "inputs": [],
      "name": "getHospitalsAddress",
      "outputs": [
        {
          "internalType": "address[]",
          "name": "",
          "type": "address[]"
        }
      ],
      "stateMutability": "view",
      "type": "function",
      "constant": true
    }
  ],
  "bytecode": "0x60806040526000600155600060025534801561001a57600080fd5b5073ce7dc242c3bc4556c34ed50fd10f79fafbe1addc6000806101000a81548173ffffffffffffffffffffffffffffffffffffffff021916908373ffffffffffffffffffffffffffffffffffffffff160217905550611f1b8061007e6000396000f3fe608060405234801561001057600080fd5b506004361061010b5760003560e01c8063a93abcd3116100a2578063c33e951511610071578063c33e9515146102cf578063cf27f2ca146102eb578063d40855eb1461031b578063e8300b1d1461034d578063fcd3889d1461037f5761010b565b8063a93abcd314610233578063ae72540014610251578063afca7e1514610281578063b4a99a4e146102b15761010b565b80633125d6eb116100de5780633125d6eb146101ac578063a5373899146101c8578063a549a4ed146101e7578063a83b582f146102175761010b565b80630fdbad64146101105780631db7d837146101425780632bb2b21c1461015e5780632c5424371461017a575b600080fd5b61012a60048036038101906101259190611528565b61039b565b604051610139939291906115f4565b60405180910390f35b61015c60048036038101906101579190611677565b6104f5565b005b61017860048036038101906101739190611765565b6106a9565b005b610194600480360381019061018f9190611528565b610840565b6040516101a3939291906117e8565b60405180910390f35b6101c660048036038101906101c19190611528565b6109c6565b005b6101d0610b0d565b6040516101de929190611826565b60405180910390f35b61020160048036038101906101fc9190611528565b610b1e565b60405161020e919061186a565b60405180910390f35b610231600480360381019061022c9190611677565b610b3e565b005b61023b610c58565b6040516102489190611943565b60405180910390f35b61026b60048036038101906102669190611528565b610d52565b6040516102789190611965565b60405180910390f35b61029b60048036038101906102969190611528565b610d85565b6040516102a8919061186a565b60405180910390f35b6102b9610da5565b6040516102c69190611965565b60405180910390f35b6102e960048036038101906102e49190611980565b610dc9565b005b61030560048036038101906103009190611a08565b610fd7565b6040516103129190611965565b60405180910390f35b61033560048036038101906103309190611528565b61100a565b60405161034493929190611a44565b60405180910390f35b61036760048036038101906103629190611528565b6110dc565b604051610376939291906115f4565b60405180910390f35b61039960048036038101906103949190611a82565b6112ed565b005b60086020528060005260406000206000915090508060000180546103be90611b58565b80601f01602080910402602001604051908101604052809291908181526020018280546103ea90611b58565b80156104375780601f1061040c57610100808354040283529160200191610437565b820191906000526020600020905b81548152906001019060200180831161041a57829003601f168201915b50505050509080600101805461044c90611b58565b80601f016020809104026020016040519081016040528092919081815260200182805461047890611b58565b80156104c55780601f1061049a576101008083540402835291602001916104c5565b820191906000526020600020905b8154815290600101906020018083116104a857829003601f168201915b5050505050908060020160009054906101000a900473ffffffffffffffffffffffffffffffffffffffff16905083565b3373ffffffffffffffffffffffffffffffffffffffff16600660008373ffffffffffffffffffffffffffffffffffffffff1673ffffffffffffffffffffffffffffffffffffffff16815260200190815260200160002060009054906101000a900473ffffffffffffffffffffffffffffffffffffffff1673ffffffffffffffffffffffffffffffffffffffff161461058c57600080fd5b600860008373ffffffffffffffffffffffffffffffffffffffff1673ffffffffffffffffffffffffffffffffffffffff16815260200190815260200160002060020160009054906101000a900473ffffffffffffffffffffffffffffffffffffffff1673ffffffffffffffffffffffffffffffffffffffff163373ffffffffffffffffffffffffffffffffffffffff161461062657600080fd5b82600660008373ffffffffffffffffffffffffffffffffffffffff1673ffffffffffffffffffffffffffffffffffffffff16815260200190815260200160002060006101000a81548173ffffffffffffffffffffffffffffffffffffffff021916908373ffffffffffffffffffffffffffffffffffffffff160217905550505050565b600360003373ffffffffffffffffffffffffffffffffffffffff1673ffffffffffffffffffffffffffffffffffffffff16815260200190815260200160002060009054906101000a900460ff166106ff57600080fd5b3373ffffffffffffffffffffffffffffffffffffffff16600660008373ffffffffffffffffffffffffffffffffffffffff1673ffffffffffffffffffffffffffffffffffffffff16815260200190815260200160002060009054906101000a900473ffffffffffffffffffffffffffffffffffffffff1673ffffffffffffffffffffffffffffffffffffffff161461079657600080fd5b6000600760008373ffffffffffffffffffffffffffffffffffffffff1673ffffffffffffffffffffffffffffffffffffffff168152602001908152602001600020905084848260000191826107ec929190611d6f565b50828160010181905550818160020160006101000a81548173ffffffffffffffffffffffffffffffffffffffff021916908373ffffffffffffffffffffffffffffffffffffffff1602179055505050505050565b6060600080600760008573ffffffffffffffffffffffffffffffffffffffff1673ffffffffffffffffffffffffffffffffffffffff168152602001908152602001600020600001600760008673ffffffffffffffffffffffffffffffffffffffff1673ffffffffffffffffffffffffffffffffffffffff16815260200190815260200160002060010154600760008773ffffffffffffffffffffffffffffffffffffffff1673ffffffffffffffffffffffffffffffffffffffff16815260200190815260200160002060020160009054906101000a900473ffffffffffffffffffffffffffffffffffffffff1682805461093990611b58565b80601f016020809104026020016040519081016040528092919081815260200182805461096590611b58565b80156109b25780601f10610987576101008083540402835291602001916109b2565b820191906000526020600020905b81548152906001019060200180831161099557829003601f168201915b505050505092509250925092509193909250565b600360003373ffffffffffffffffffffffffffffffffffffffff1673ffffffffffffffffffffffffffffffffffffffff16815260200190815260200160002060009054906101000a900460ff16610a1c57600080fd5b33600660008373ffffffffffffffffffffffffffffffffffffffff1673ffffffffffffffffffffffffffffffffffffffff16815260200190815260200160002060006101000a81548173ffffffffffffffffffffffffffffffffffffffff021916908373ffffffffffffffffffffffffffffffffffffffff1602179055506001600560003373ffffffffffffffffffffffffffffffffffffffff1673ffffffffffffffffffffffffffffffffffffffff16815260200190815260200160002060006101000a81548160ff02191690831515021790555060026000815480929190610b0590611e6e565b919050555050565b600080600154600254915091509091565b60036020528060005260406000206000915054906101000a900460ff1681565b8173ffffffffffffffffffffffffffffffffffffffff16600660008373ffffffffffffffffffffffffffffffffffffffff1673ffffffffffffffffffffffffffffffffffffffff16815260200190815260200160002060009054906101000a900473ffffffffffffffffffffffffffffffffffffffff1673ffffffffffffffffffffffffffffffffffffffff1614610bd557600080fd5b82600660008373ffffffffffffffffffffffffffffffffffffffff1673ffffffffffffffffffffffffffffffffffffffff16815260200190815260200160002060006101000a81548173ffffffffffffffffffffffffffffffffffffffff021916908373ffffffffffffffffffffffffffffffffffffffff160217905550505050565b6060600060015467ffffffffffffffff811115610c7857610c77611b94565b5b604051908082528060200260200182016040528015610ca65781602001602082028036833780820191505090505b50905060005b600154811015610d4a576004600082815260200190815260200160002060009054906101000a900473ffffffffffffffffffffffffffffffffffffffff16828281518110610cfd57610cfc611eb6565b5b602002602001019073ffffffffffffffffffffffffffffffffffffffff16908173ffffffffffffffffffffffffffffffffffffffff16815250508080610d4290611e6e565b915050610cac565b508091505090565b60066020528060005260406000206000915054906101000a900473ffffffffffffffffffffffffffffffffffffffff1681565b60056020528060005260406000206000915054906101000a900460ff1681565b60008054906101000a900473ffffffffffffffffffffffffffffffffffffffff1681565b600360003373ffffffffffffffffffffffffffffffffffffffff1673ffffffffffffffffffffffffffffffffffffffff16815260200190815260200160002060009054906101000a900460ff16610e1f57600080fd5b600660003373ffffffffffffffffffffffffffffffffffffffff1673ffffffffffffffffffffffffffffffffffffffff16815260200190815260200160002060009054906101000a900473ffffffffffffffffffffffffffffffffffffffff1673ffffffffffffffffffffffffffffffffffffffff168573ffffffffffffffffffffffffffffffffffffffff1614610eb657600080fd5b8383600760008873ffffffffffffffffffffffffffffffffffffffff1673ffffffffffffffffffffffffffffffffffffffff1681526020019081526020016000206000019182610f07929190611d6f565b5081600760008773ffffffffffffffffffffffffffffffffffffffff1673ffffffffffffffffffffffffffffffffffffffff1681526020019081526020016000206001018190555080600760008773ffffffffffffffffffffffffffffffffffffffff1673ffffffffffffffffffffffffffffffffffffffff16815260200190815260200160002060020160006101000a81548173ffffffffffffffffffffffffffffffffffffffff021916908373ffffffffffffffffffffffffffffffffffffffff1602179055505050505050565b60046020528060005260406000206000915054906101000a900473ffffffffffffffffffffffffffffffffffffffff1681565b600760205280600052604060002060009150905080600001805461102d90611b58565b80601f016020809104026020016040519081016040528092919081815260200182805461105990611b58565b80156110a65780601f1061107b576101008083540402835291602001916110a6565b820191906000526020600020905b81548152906001019060200180831161108957829003601f168201915b5050505050908060010154908060020160009054906101000a900473ffffffffffffffffffffffffffffffffffffffff16905083565b6060806000600860008573ffffffffffffffffffffffffffffffffffffffff1673ffffffffffffffffffffffffffffffffffffffff168152602001908152602001600020600001600860008673ffffffffffffffffffffffffffffffffffffffff1673ffffffffffffffffffffffffffffffffffffffff168152602001908152602001600020600101600860008773ffffffffffffffffffffffffffffffffffffffff1673ffffffffffffffffffffffffffffffffffffffff16815260200190815260200160002060020160009054906101000a900473ffffffffffffffffffffffffffffffffffffffff168280546111d490611b58565b80601f016020809104026020016040519081016040528092919081815260200182805461120090611b58565b801561124d5780601f106112225761010080835404028352916020019161124d565b820191906000526020600020905b81548152906001019060200180831161123057829003601f168201915b5050505050925081805461126090611b58565b80601f016020809104026020016040519081016040528092919081815260200182805461128c90611b58565b80156112d95780601f106112ae576101008083540402835291602001916112d9565b820191906000526020600020905b8154815290600101906020018083116112bc57829003601f168201915b505050505091509250925092509193909250565b60008054906101000a900473ffffffffffffffffffffffffffffffffffffffff1673ffffffffffffffffffffffffffffffffffffffff163373ffffffffffffffffffffffffffffffffffffffff161461134557600080fd5b6000600860008873ffffffffffffffffffffffffffffffffffffffff1673ffffffffffffffffffffffffffffffffffffffff16815260200190815260200160002090506001600360008973ffffffffffffffffffffffffffffffffffffffff1673ffffffffffffffffffffffffffffffffffffffff16815260200190815260200160002060006101000a81548160ff0219169083151502179055508660046000600154815260200190815260200160002060006101000a81548173ffffffffffffffffffffffffffffffffffffffff021916908373ffffffffffffffffffffffffffffffffffffffff1602179055506001600081548092919061144790611e6e565b9190505550848482600001918261145f929190611d6f565b508282826001019182611473929190611d6f565b50858160020160006101000a81548173ffffffffffffffffffffffffffffffffffffffff021916908373ffffffffffffffffffffffffffffffffffffffff16021790555050505050505050565b600080fd5b600080fd5b600073ffffffffffffffffffffffffffffffffffffffff82169050919050565b60006114f5826114ca565b9050919050565b611505816114ea565b811461151057600080fd5b50565b600081359050611522816114fc565b92915050565b60006020828403121561153e5761153d6114c0565b5b600061154c84828501611513565b91505092915050565b600081519050919050565b600082825260208201905092915050565b60005b8381101561158f578082015181840152602081019050611574565b60008484015250505050565b6000601f19601f8301169050919050565b60006115b782611555565b6115c18185611560565b93506115d1818560208601611571565b6115da8161159b565b840191505092915050565b6115ee816114ea565b82525050565b6000606082019050818103600083015261160e81866115ac565b9050818103602083015261162281856115ac565b905061163160408301846115e5565b949350505050565b6000611644826114ca565b9050919050565b61165481611639565b811461165f57600080fd5b50565b6000813590506116718161164b565b92915050565b6000806000606084860312156116905761168f6114c0565b5b600061169e86828701611513565b93505060206116af86828701611513565b92505060406116c086828701611662565b9150509250925092565b600080fd5b600080fd5b600080fd5b60008083601f8401126116ef576116ee6116ca565b5b8235905067ffffffffffffffff81111561170c5761170b6116cf565b5b602083019150836001820283011115611728576117276116d4565b5b9250929050565b6000819050919050565b6117428161172f565b811461174d57600080fd5b50565b60008135905061175f81611739565b92915050565b6000806000806060858703121561177f5761177e6114c0565b5b600085013567ffffffffffffffff81111561179d5761179c6114c5565b5b6117a9878288016116d9565b945094505060206117bc87828801611750565b92505060406117cd87828801611662565b91505092959194509250565b6117e28161172f565b82525050565b6000606082019050818103600083015261180281866115ac565b905061181160208301856117d9565b61181e60408301846115e5565b949350505050565b600060408201905061183b60008301856117d9565b61184860208301846117d9565b9392505050565b60008115159050919050565b6118648161184f565b82525050565b600060208201905061187f600083018461185b565b92915050565b600081519050919050565b600082825260208201905092915050565b6000819050602082019050919050565b6118ba816114ea565b82525050565b60006118cc83836118b1565b60208301905092915050565b6000602082019050919050565b60006118f082611885565b6118fa8185611890565b9350611905836118a1565b8060005b8381101561193657815161191d88826118c0565b9750611928836118d8565b925050600181019050611909565b5085935050505092915050565b6000602082019050818103600083015261195d81846118e5565b905092915050565b600060208201905061197a60008301846115e5565b92915050565b60008060008060006080868803121561199c5761199b6114c0565b5b60006119aa88828901611513565b955050602086013567ffffffffffffffff8111156119cb576119ca6114c5565b5b6119d7888289016116d9565b945094505060406119ea88828901611750565b92505060606119fb88828901611662565b9150509295509295909350565b600060208284031215611a1e57611a1d6114c0565b5b6000611a2c84828501611750565b91505092915050565b611a3e81611639565b82525050565b60006060820190508181036000830152611a5e81866115ac565b9050611a6d60208301856117d9565b611a7a6040830184611a35565b949350505050565b60008060008060008060808789031215611a9f57611a9e6114c0565b5b6000611aad89828a01611513565b9650506020611abe89828a01611513565b955050604087013567ffffffffffffffff811115611adf57611ade6114c5565b5b611aeb89828a016116d9565b9450945050606087013567ffffffffffffffff811115611b0e57611b0d6114c5565b5b611b1a89828a016116d9565b92509250509295509295509295565b7f4e487b7100000000000000000000000000000000000000000000000000000000600052602260045260246000fd5b60006002820490506001821680611b7057607f821691505b602082108103611b8357611b82611b29565b5b50919050565b600082905092915050565b7f4e487b7100000000000000000000000000000000000000000000000000000000600052604160045260246000fd5b60008190508160005260206000209050919050565b60006020601f8301049050919050565b600082821b905092915050565b600060088302611c257fffffffffffffffffffffffffffffffffffffffffffffffffffffffffffffffff82611be8565b611c2f8683611be8565b95508019841693508086168417925050509392505050565b6000819050919050565b6000611c6c611c67611c628461172f565b611c47565b61172f565b9050919050565b6000819050919050565b611c8683611c51565b611c9a611c9282611c73565b848454611bf5565b825550505050565b600090565b611caf611ca2565b611cba818484611c7d565b505050565b5b81811015611cde57611cd3600082611ca7565b600181019050611cc0565b5050565b601f821115611d2357611cf481611bc3565b611cfd84611bd8565b81016020851015611d0c578190505b611d20611d1885611bd8565b830182611cbf565b50505b505050565b600082821c905092915050565b6000611d4660001984600802611d28565b1980831691505092915050565b6000611d5f8383611d35565b9150826002028217905092915050565b611d798383611b89565b67ffffffffffffffff811115611d9257611d91611b94565b5b611d9c8254611b58565b611da7828285611ce2565b6000601f831160018114611dd65760008415611dc4578287013590505b611dce8582611d53565b865550611e36565b601f198416611de486611bc3565b60005b82811015611e0c57848901358255600182019150602085019450602081019050611de7565b86831015611e295784890135611e25601f891682611d35565b8355505b6001600288020188555050505b50505050505050565b7f4e487b7100000000000000000000000000000000000000000000000000000000600052601160045260246000fd5b6000611e798261172f565b91507fffffffffffffffffffffffffffffffffffffffffffffffffffffffffffffffff8203611eab57611eaa611e3f565b5b600182019050919050565b7f4e487b7100000000000000000000000000000000000000000000000000000000600052603260045260246000fdfea2646970667358221220be3771a17ad682fdec7e6d743abe538ff13619862b25667e92f1b040843569f964736f6c63430008110033",
  "immutableReferences": {},
  "source": "// SPDX-License-Identifier: GPL-3.0\r\n\r\npragma solidity >=0.7.0 <0.9.0;\r\n\r\ncontract EMR {\r\n    struct EHR {\r\n        string patient_name;\r\n        uint age;\r\n        address payable patient_address;\r\n    }\r\n\r\n    struct HospitalData {\r\n        string name;\r\n        string addr;\r\n        address manager;\r\n    }\r\n    \r\n    address public Owner;\r\n    uint HospitalCount=0;\r\n    uint PatientCount=0;\r\n    mapping(address => bool) public Hospitals;\r\n    mapping(uint => address) public HospitalsAddr;\r\n    mapping(address => bool) public Patients; \r\n    mapping(address => address) public Hospital_patients; //many to one\r\n    mapping(address => EHR) public Patients_EHR;\r\n    mapping(address => HospitalData) public Hospital_Data;\r\n\r\n    constructor() {\r\n        Owner = 0xce7Dc242c3Bc4556C34Ed50fd10F79fAfbE1AddC;\r\n    }\r\n\r\n    modifier restrictedToHospital() {\r\n        require(Hospitals[msg.sender]);\r\n        _;\r\n    }\r\n\r\n    modifier restrictedTopatients() {\r\n        require(Patients[msg.sender]);\r\n        _;\r\n    }\r\n\r\n\r\n    function Add_Hospitals(address Hospital,address manager,  string calldata name,string calldata addr) public  {\r\n        require(msg.sender==Owner);\r\n        HospitalData storage newHospitalData = Hospital_Data[Hospital];\r\n        Hospitals[Hospital]=true;\r\n        HospitalsAddr[HospitalCount]=Hospital;\r\n        HospitalCount ++;\r\n        newHospitalData.name=name;\r\n        newHospitalData.addr=addr;\r\n        newHospitalData.manager=manager;\r\n\r\n\r\n    }\r\n\r\n    function Add_Patient(address patient) restrictedToHospital public  {\r\n    \r\n        Hospital_patients [patient] = msg.sender;\r\n        Patients[msg.sender]=true;\r\n        PatientCount ++;\r\n    }\r\n    \r\n    function Add_Patient_EHR(string calldata patient_name,uint age,address payable patient_address) restrictedToHospital public {\r\n    require(Hospital_patients [patient_address] == msg.sender);\r\n    EHR storage newEHR = Patients_EHR[patient_address];\r\n    newEHR.patient_name=patient_name;\r\n    newEHR.age=age;\r\n    newEHR.patient_address=patient_address;\r\n\r\n    }\r\n     \r\n    function Emergency_EHR_Transfer(address To,address From,address payable patient_address) public {\r\n    require(Hospital_patients [patient_address] == msg.sender);\r\n    require(msg.sender==Hospital_Data[From].manager);\r\n    Hospital_patients[patient_address]=To;\r\n    }\r\n\r\n    function EHR_Transfer(address To,address From,address payable patient_address) public {\r\n    require(Hospital_patients [patient_address] == From);\r\n    Hospital_patients[patient_address]=To;  \r\n    }\r\n \r\n    function getCounts() public view  returns (uint,uint) {\r\n    return (HospitalCount,PatientCount);\r\n}\r\n\r\n    function updateEHR(address patient,string calldata patient_name,uint age,address payable patient_address) public restrictedToHospital{\r\n    require(patient==Hospital_patients[msg.sender]);\r\n    Patients_EHR[patient].patient_name=patient_name;\r\n    Patients_EHR[patient].age=age;\r\n    Patients_EHR[patient].patient_address=patient_address;\r\n    }\r\n\r\n    function getEHRsummary(address patient) public view  returns (string memory,uint,address) \r\n    {\r\n        return(\r\n    Patients_EHR[patient].patient_name,\r\n    Patients_EHR[patient].age,\r\n    Patients_EHR[patient].patient_address);\r\n    }\r\n\r\n    function getHospitalData(address Hospital) public view  returns (string memory,string memory,address) \r\n    {\r\n        return(\r\n    Hospital_Data[Hospital].name,\r\n    Hospital_Data[Hospital].addr,\r\n    Hospital_Data[Hospital].manager);\r\n\r\n    }\r\n\r\n    function getHospitalsAddress() public view returns(address[] memory)\r\n    {\r\n      address[] memory ret = new address[](HospitalCount);\r\n    for (uint i = 0; i < HospitalCount; i++) {\r\n        ret[i]=HospitalsAddr[i];\r\n    }\r\n    return ret;\r\n    }\r\n\r\n}",
  "sourcePath": "C:\\Users\\anita\\ehr\\contracts\\EHR.sol",
  "compiler": {
    "name": "solc",
    "version": "0.8.17+commit.8df45f5f.Emscripten.clang"
  },
  "schemaVersion": "3.4.10",
  "updatedAt": "2022-09-18T09:53:55.661Z",
  "networkType": "ethereum",
  "devdoc": {
    "kind": "dev",
    "methods": {},
    "version": 1
  },
  "userdoc": {
    "kind": "user",
    "methods": {},
    "version": 1
  }
}